{
  "_format": "hh-sol-artifact-1",
  "contractName": "ERC4973",
  "sourceName": "src/backend/contracts/ERC4973.sol",
  "abi": [
    {
      "inputs": [
        {
          "internalType": "string",
          "name": "name_",
          "type": "string"
        },
        {
          "internalType": "string",
          "name": "symbol_",
          "type": "string"
        }
      ],
      "stateMutability": "nonpayable",
      "type": "constructor"
    },
    {
      "anonymous": false,
      "inputs": [
        {
          "indexed": true,
          "internalType": "address",
          "name": "_to",
          "type": "address"
        },
        {
          "indexed": true,
          "internalType": "uint256",
          "name": "_tokenId",
          "type": "uint256"
        }
      ],
      "name": "Attest",
      "type": "event"
    },
    {
      "anonymous": false,
      "inputs": [
        {
          "indexed": true,
          "internalType": "address",
          "name": "_to",
          "type": "address"
        },
        {
          "indexed": true,
          "internalType": "uint256",
          "name": "_tokenId",
          "type": "uint256"
        }
      ],
      "name": "Revoke",
      "type": "event"
    },
    {
      "inputs": [
        {
          "internalType": "uint256",
          "name": "_tokenId",
          "type": "uint256"
        }
      ],
      "name": "burn",
      "outputs": [],
      "stateMutability": "nonpayable",
      "type": "function"
    },
    {
      "inputs": [],
      "name": "name",
      "outputs": [
        {
          "internalType": "string",
          "name": "",
          "type": "string"
        }
      ],
      "stateMutability": "view",
      "type": "function"
    },
    {
      "inputs": [
        {
          "internalType": "uint256",
          "name": "tokenId",
          "type": "uint256"
        }
      ],
      "name": "ownerOf",
      "outputs": [
        {
          "internalType": "address",
          "name": "",
          "type": "address"
        }
      ],
      "stateMutability": "view",
      "type": "function"
    },
    {
      "inputs": [
        {
          "internalType": "bytes4",
          "name": "interfaceId",
          "type": "bytes4"
        }
      ],
      "name": "supportsInterface",
      "outputs": [
        {
          "internalType": "bool",
          "name": "",
          "type": "bool"
        }
      ],
      "stateMutability": "view",
      "type": "function"
    },
    {
      "inputs": [],
      "name": "symbol",
      "outputs": [
        {
          "internalType": "string",
          "name": "",
          "type": "string"
        }
      ],
      "stateMutability": "view",
      "type": "function"
    },
    {
      "inputs": [
        {
          "internalType": "uint256",
          "name": "tokenId",
          "type": "uint256"
        }
      ],
      "name": "tokenURI",
      "outputs": [
        {
          "internalType": "string",
          "name": "",
          "type": "string"
        }
      ],
      "stateMutability": "view",
      "type": "function"
    }
  ],
  "bytecode": "0x608060405234801561001057600080fd5b5060405161081238038061081283398101604081905261002f916101a3565b815161004290600090602085019061005e565b50805161005690600190602084019061005e565b505050610257565b82805461006a90610206565b90600052602060002090601f01602090048101928261008c57600085556100d2565b82601f106100a557805160ff19168380011785556100d2565b828001600101855582156100d2579182015b828111156100d25782518255916020019190600101906100b7565b506100de9291506100e2565b5090565b5b808211156100de57600081556001016100e3565b600082601f83011261010857600080fd5b81516001600160401b038082111561012257610122610241565b604051601f8301601f19908116603f0116810190828211818310171561014a5761014a610241565b8160405283815260209250868385880101111561016657600080fd5b600091505b83821015610188578582018301518183018401529082019061016b565b838211156101995760008385830101525b9695505050505050565b600080604083850312156101b657600080fd5b82516001600160401b03808211156101cd57600080fd5b6101d9868387016100f7565b935060208501519150808211156101ef57600080fd5b506101fc858286016100f7565b9150509250929050565b600181811c9082168061021a57607f821691505b6020821081141561023b57634e487b7160e01b600052602260045260246000fd5b50919050565b634e487b7160e01b600052604160045260246000fd5b6105ac806102666000396000f3fe608060405234801561001057600080fd5b50600436106100625760003560e01c806301ffc9a71461006757806306fdde031461008f57806342966c68146100a45780636352211e146100b957806395d89b41146100e4578063c87b56dd146100ec575b600080fd5b61007a61007536600461049c565b6100ff565b60405190151581526020015b60405180910390f35b610097610151565b60405161008691906104e6565b6100b76100b23660046104cd565b6101e3565b005b6100cc6100c73660046104cd565b61025d565b6040516001600160a01b039091168152602001610086565b6100976102c2565b6100976100fa3660046104cd565b6102d1565b60006001600160e01b03198216635b5e139f60e01b148061013057506001600160e01b031982166310e226bb60e11b145b8061014b57506301ffc9a760e01b6001600160e01b03198316145b92915050565b6060600080546101609061053b565b80601f016020809104026020016040519081016040528092919081815260200182805461018c9061053b565b80156101d95780601f106101ae576101008083540402835291602001916101d9565b820191906000526020600020905b8154815290600101906020018083116101bc57829003601f168201915b5050505050905090565b6101ec8161025d565b6001600160a01b0316336001600160a01b0316146102515760405162461bcd60e51b815260206004820152601a60248201527f6275726e3a2073656e646572206d757374206265206f776e657200000000000060448201526064015b60405180910390fd5b61025a816103d6565b50565b6000818152600260205260408120546001600160a01b03168061014b5760405162461bcd60e51b815260206004820152601c60248201527f6f776e65724f663a20746f6b656e20646f65736e2774206578697374000000006044820152606401610248565b6060600180546101609061053b565b6000818152600260205260409020546060906001600160a01b03166103385760405162461bcd60e51b815260206004820152601d60248201527f746f6b656e5552493a20746f6b656e20646f65736e27742065786973740000006044820152606401610248565b600082815260036020526040902080546103519061053b565b80601f016020809104026020016040519081016040528092919081815260200182805461037d9061053b565b80156103ca5780601f1061039f576101008083540402835291602001916103ca565b820191906000526020600020905b8154815290600101906020018083116103ad57829003601f168201915b50505050509050919050565b60006103e18261025d565b600083815260026020908152604080832080546001600160a01b031916905560039091528120919250610414919061044e565b60405182906001600160a01b038316907fec9ab91322523c899ede7830ec9bfc992b5981cdcc27b91162fb23de5791117b90600090a35050565b50805461045a9061053b565b6000825580601f1061046a575050565b601f01602090049060005260206000209081019061025a91905b808211156104985760008155600101610484565b5090565b6000602082840312156104ae57600080fd5b81356001600160e01b0319811681146104c657600080fd5b9392505050565b6000602082840312156104df57600080fd5b5035919050565b600060208083528351808285015260005b81811015610513578581018301518582016040015282016104f7565b81811115610525576000604083870101525b50601f01601f1916929092016040019392505050565b600181811c9082168061054f57607f821691505b6020821081141561057057634e487b7160e01b600052602260045260246000fd5b5091905056fea264697066735822122076f9011b273f81f5d48fcd49610180714a52f6f087fddb4204429bea786675c964736f6c63430008060033",
  "linkReferences": {},
  "deployedLinkReferences": {}
}